{
  "abi": [
    {
      "inputs": [
        {
          "components": [
            {
              "internalType": "address",
              "name": "addr",
              "type": "address"
            },
            {
              "internalType": "uint256",
              "name": "score",
              "type": "uint256"
            }
          ],
          "internalType": "struct SAnswerNativeToken.LicenseCandidate",
          "name": "candidate",
          "type": "tuple"
        }
      ],
      "name": "gimmeLicense",
      "outputs": [],
      "stateMutability": "payable",
      "type": "function"
    },
    {
      "inputs": [
        {
          "internalType": "address",
          "name": "",
          "type": "address"
        }
      ],
      "name": "licenseHolders",
      "outputs": [
        {
          "internalType": "address",
          "name": "addr",
          "type": "address"
        },
        {
          "internalType": "uint256",
          "name": "score",
          "type": "uint256"
        }
      ],
      "stateMutability": "view",
      "type": "function"
    }
  ],
  "bytecode": {
    "object": "0x608060405234801561001057600080fd5b50610278806100206000396000f3fe6080604052600436106100295760003560e01c8063b75c30db1461002e578063ef29571614610091575b600080fd5b34801561003a57600080fd5b5061006e6100493660046101bb565b600060208190529081526040902080546001909101546001600160a01b039091169082565b604080516001600160a01b03909316835260208301919091520160405180910390f35b6100a461009f3660046101dd565b6100a6565b005b805181906001600160a01b031633146101155760405162461bcd60e51b815260206004820152602660248201527f596f7520617265206e6f7420746865206f776e6572206f66207468697320616360448201526531b7bab73a1760d11b60648201526084015b60405180910390fd5b670de0b6b3a76400003410156101675760508260200151116101675760405162461bcd60e51b815260206004820152600b60248201526a2cb7ba903330b4b632b21760a91b604482015260640161010c565b5033600090815260208181526040909120825181546001600160a01b0319166001600160a01b03909116178155910151600190910155565b80356001600160a01b03811681146101b657600080fd5b919050565b6000602082840312156101cd57600080fd5b6101d68261019f565b9392505050565b6000604082840312156101ef57600080fd5b6040516040810181811067ffffffffffffffff8211171561022057634e487b7160e01b600052604160045260246000fd5b60405261022c8361019f565b815260208301356020820152809150509291505056fea264697066735822122052f6b15d55363251f5aa1877c4ce1c105181ec1fbb873f121d77234620682b9a64736f6c63430008130033",
    "linkReferences": {}
  },
  "methodIdentifiers": {
    "gimmeLicense((address,uint256))": "ef295716",
    "licenseHolders(address)": "b75c30db"
  },
  "id": 38
}