{
  "abi": [
    {
      "inputs": [
        {
          "internalType": "address",
          "name": "",
          "type": "address"
        }
      ],
      "name": "mscore",
      "outputs": [
        {
          "internalType": "string",
          "name": "name",
          "type": "string"
        },
        {
          "internalType": "string",
          "name": "description",
          "type": "string"
        },
        {
          "internalType": "uint256",
          "name": "score",
          "type": "uint256"
        },
        {
          "internalType": "uint256",
          "name": "ssss",
          "type": "uint256"
        }
      ],
      "stateMutability": "view",
      "type": "function"
    },
    {
      "inputs": [
        {
          "internalType": "address",
          "name": "_key",
          "type": "address"
        }
      ],
      "name": "scores",
      "outputs": [
        {
          "internalType": "string",
          "name": "",
          "type": "string"
        },
        {
          "internalType": "string",
          "name": "",
          "type": "string"
        },
        {
          "internalType": "uint256",
          "name": "",
          "type": "uint256"
        }
      ],
      "stateMutability": "view",
      "type": "function"
    },
    {
      "inputs": [
        {
          "components": [
            {
              "internalType": "string",
              "name": "name",
              "type": "string"
            },
            {
              "internalType": "string",
              "name": "description",
              "type": "string"
            },
            {
              "internalType": "uint256",
              "name": "score",
              "type": "uint256"
            },
            {
              "internalType": "uint256",
              "name": "ssss",
              "type": "uint256"
            }
          ],
          "internalType": "struct SAnswerStructAndStorage.YourScore",
          "name": "_score",
          "type": "tuple"
        }
      ],
      "name": "submitScoreWithCheat",
      "outputs": [],
      "stateMutability": "nonpayable",
      "type": "function"
    }
  ],
  "bytecode": {
    "object": "0x608060405234801561001057600080fd5b506107d1806100206000396000f3fe608060405234801561001057600080fd5b50600436106100415760003560e01c80635da129901461004657806376dd110f1461005b578063943370ab14610086575b600080fd5b61005961005436600461049e565b6100a9565b005b61006e610069366004610546565b610148565b60405161007d939291906105bc565b60405180910390f35b610099610094366004610546565b61029a565b60405161007d94939291906105f2565b6100d46040518060800160405280606081526020016060815260200160008152602001600081525090565b815181526020808301519082015260408201516100f290603261062b565b6040808301919091523360009081526020819052208151829190819061011890826106db565b506020820151600182019061012d90826106db565b50604082015160028201556060909101516003909101555050565b6001600160a01b038116600090815260208190526040812060028101548154606093849390929091600183019190839061018190610652565b80601f01602080910402602001604051908101604052809291908181526020018280546101ad90610652565b80156101fa5780601f106101cf576101008083540402835291602001916101fa565b820191906000526020600020905b8154815290600101906020018083116101dd57829003601f168201915b5050505050925081805461020d90610652565b80601f016020809104026020016040519081016040528092919081815260200182805461023990610652565b80156102865780601f1061025b57610100808354040283529160200191610286565b820191906000526020600020905b81548152906001019060200180831161026957829003601f168201915b505050505091509250925092509193909250565b6000602081905290815260409020805481906102b590610652565b80601f01602080910402602001604051908101604052809291908181526020018280546102e190610652565b801561032e5780601f106103035761010080835404028352916020019161032e565b820191906000526020600020905b81548152906001019060200180831161031157829003601f168201915b50505050509080600101805461034390610652565b80601f016020809104026020016040519081016040528092919081815260200182805461036f90610652565b80156103bc5780601f10610391576101008083540402835291602001916103bc565b820191906000526020600020905b81548152906001019060200180831161039f57829003601f168201915b5050505050908060020154908060030154905084565b634e487b7160e01b600052604160045260246000fd5b6040516080810167ffffffffffffffff8111828210171561040b5761040b6103d2565b60405290565b600082601f83011261042257600080fd5b813567ffffffffffffffff8082111561043d5761043d6103d2565b604051601f8301601f19908116603f01168101908282118183101715610465576104656103d2565b8160405283815286602085880101111561047e57600080fd5b836020870160208301376000602085830101528094505050505092915050565b6000602082840312156104b057600080fd5b813567ffffffffffffffff808211156104c857600080fd5b90830190608082860312156104dc57600080fd5b6104e46103e8565b8235828111156104f357600080fd5b6104ff87828601610411565b82525060208301358281111561051457600080fd5b61052087828601610411565b602083015250604083013560408201526060830135606082015280935050505092915050565b60006020828403121561055857600080fd5b81356001600160a01b038116811461056f57600080fd5b9392505050565b6000815180845260005b8181101561059c57602081850181015186830182015201610580565b506000602082860101526020601f19601f83011685010191505092915050565b6060815260006105cf6060830186610576565b82810360208401526105e18186610576565b915050826040830152949350505050565b6080815260006106056080830187610576565b82810360208401526106178187610576565b604084019590955250506060015292915050565b8082018082111561064c57634e487b7160e01b600052601160045260246000fd5b92915050565b600181811c9082168061066657607f821691505b60208210810361068657634e487b7160e01b600052602260045260246000fd5b50919050565b601f8211156106d657600081815260208120601f850160051c810160208610156106b35750805b601f850160051c820191505b818110156106d2578281556001016106bf565b5050505b505050565b815167ffffffffffffffff8111156106f5576106f56103d2565b610709816107038454610652565b8461068c565b602080601f83116001811461073e57600084156107265750858301515b600019600386901b1c1916600185901b1785556106d2565b600085815260208120601f198616915b8281101561076d5788860151825594840194600190910190840161074e565b508582101561078b5787850151600019600388901b60f8161c191681555b5050505050600190811b0190555056fea26469706673582212204ca3908e4187d6284047805a41ff8d931ff7d8572f719d4293a8deb1def8169f64736f6c63430008130033",
    "linkReferences": {}
  },
  "methodIdentifiers": {
    "mscore(address)": "943370ab",
    "scores(address)": "76dd110f",
    "submitScoreWithCheat((string,string,uint256,uint256))": "5da12990"
  },
  "id": 14
}