{
  "abi": [
    {
      "inputs": [
        {
          "components": [
            {
              "internalType": "address",
              "name": "addr",
              "type": "address"
            },
            {
              "internalType": "uint256",
              "name": "collateral",
              "type": "uint256"
            },
            {
              "internalType": "uint256",
              "name": "debt",
              "type": "uint256"
            }
          ],
          "internalType": "struct SAnswerConditionalCheck.Person",
          "name": "person",
          "type": "tuple"
        },
        {
          "internalType": "uint256",
          "name": "amount",
          "type": "uint256"
        }
      ],
      "name": "borrowMore",
      "outputs": [
        {
          "internalType": "bool",
          "name": "",
          "type": "bool"
        }
      ],
      "stateMutability": "nonpayable",
      "type": "function"
    }
  ],
  "bytecode": {
    "object": "0x608060405234801561001057600080fd5b506102f1806100206000396000f3fe608060405234801561001057600080fd5b506004361061002b5760003560e01c806332c3095f14610030575b600080fd5b61004361003e3660046101dd565b610057565b604051901515815260200160405180910390f35b600082336001600160a01b031681600001516001600160a01b03160361017f57600084604001516000036100ed575060405162461bcd60e51b815260206004820152602e60248201527f436f6c6c61746572616c697a6174696f6e20726174696f206d7573742062652060448201526d6d6f7265207468616e203131302560901b60648201526001906084015b60405180910390fd5b606e8560400151866020015186610104919061026e565b61010e9190610299565b111561011c57506001610178565b60405162461bcd60e51b815260206004820152602b60248201527f436f6c6c61746572616c697a6174696f6e20726174696f20697320616c72656160448201526a0c8f240e8dede40d0d2ced60ab1b60648201526084016100e4565b91506101d6565b60405162461bcd60e51b815260206004820152602660248201527f596f7520617265206e6f7420746865206f776e6572206f66207468697320616360448201526531b7bab73a1760d11b60648201526084016100e4565b5092915050565b60008082840360808112156101f157600080fd5b60608112156101ff57600080fd5b506040516060810181811067ffffffffffffffff8211171561023157634e487b7160e01b600052604160045260246000fd5b60405283356001600160a01b038116811461024b57600080fd5b815260208481013590820152604080850135908201529460609093013593505050565b808202811582820484141761029357634e487b7160e01b600052601160045260246000fd5b92915050565b6000826102b657634e487b7160e01b600052601260045260246000fd5b50049056fea2646970667358221220a9d4d72aadb6913c83d986c7588b35a9393731c7e4d9eb162f4d58f5b17c9eba64736f6c63430008130033",
    "linkReferences": {}
  },
  "methodIdentifiers": {
    "borrowMore((address,uint256,uint256),uint256)": "32c3095f"
  },
  "id": 16
}