{
  "abi": [
    {
      "anonymous": false,
      "inputs": [
        {
          "indexed": true,
          "internalType": "address",
          "name": "previousOwner",
          "type": "address"
        },
        {
          "indexed": true,
          "internalType": "address",
          "name": "newOwner",
          "type": "address"
        }
      ],
      "name": "OwnershipTransferred",
      "type": "event"
    },
    {
      "inputs": [],
      "name": "buyBoosterPack",
      "outputs": [],
      "stateMutability": "payable",
      "type": "function"
    },
    {
      "inputs": [],
      "name": "canEnterByOriginHolder",
      "outputs": [
        {
          "internalType": "bool",
          "name": "",
          "type": "bool"
        }
      ],
      "stateMutability": "view",
      "type": "function"
    },
    {
      "inputs": [],
      "name": "owner",
      "outputs": [
        {
          "internalType": "address",
          "name": "",
          "type": "address"
        }
      ],
      "stateMutability": "view",
      "type": "function"
    },
    {
      "inputs": [],
      "name": "renounceOwnership",
      "outputs": [],
      "stateMutability": "nonpayable",
      "type": "function"
    },
    {
      "inputs": [
        {
          "internalType": "address",
          "name": "_nft",
          "type": "address"
        }
      ],
      "name": "setNFT",
      "outputs": [],
      "stateMutability": "nonpayable",
      "type": "function"
    },
    {
      "inputs": [
        {
          "internalType": "address",
          "name": "newOwner",
          "type": "address"
        }
      ],
      "name": "transferOwnership",
      "outputs": [],
      "stateMutability": "nonpayable",
      "type": "function"
    }
  ],
  "bytecode": {
    "object": "0x6080604052600160025534801561001557600080fd5b5061001f33610024565b610074565b600080546001600160a01b038381166001600160a01b0319831681178455604051919092169283917f8be0079c531659141344cd1fd0a4f28419497f9722a3daafe3b4186f6b6457e09190a35050565b6104e1806100836000396000f3fe6080604052600436106100555760003560e01c806301eb528a1461005a578063715018a6146100845780638da5cb5b1461009b578063a3006abf146100c3578063f2fde38b146100cb578063f56e9c66146100eb575b600080fd5b34801561006657600080fd5b5061006f61010b565b60405190151581526020015b60405180910390f35b34801561009057600080fd5b506100996101ef565b005b3480156100a757600080fd5b506000546040516001600160a01b03909116815260200161007b565b610099610203565b3480156100d757600080fd5b506100996100e6366004610421565b6102bf565b3480156100f757600080fd5b50610099610106366004610421565b610338565b600180546040516331a9108f60e11b815260009283926001600160a01b031691636352211e916101419160040190815260200190565b602060405180830381865afa15801561015e573d6000803e3d6000fd5b505050506040513d601f19601f820116820180604052508101906101829190610445565b6001600160a01b0316336001600160a01b0316146101e75760405162461bcd60e51b815260206004820152601d60248201527f596f7520646f6e2774206861766520746865206669727374204e46542e00000060448201526064015b60405180910390fd5b506001919050565b6101f7610362565b61020160006103bc565b565b60006102176702c68af0bb14000034610462565b905060005b818110156102bb576001546002546040516323b872dd60e01b815230600482015233602482015260448101919091526001600160a01b03909116906323b872dd90606401600060405180830381600087803b15801561027a57600080fd5b505af115801561028e573d6000803e3d6000fd5b5050600280549250905060006102a383610484565b919050555080806102b390610484565b91505061021c565b5050565b6102c7610362565b6001600160a01b03811661032c5760405162461bcd60e51b815260206004820152602660248201527f4f776e61626c653a206e6577206f776e657220697320746865207a65726f206160448201526564647265737360d01b60648201526084016101de565b610335816103bc565b50565b610340610362565b600180546001600160a01b0319166001600160a01b0392909216919091179055565b6000546001600160a01b031633146102015760405162461bcd60e51b815260206004820181905260248201527f4f776e61626c653a2063616c6c6572206973206e6f7420746865206f776e657260448201526064016101de565b600080546001600160a01b038381166001600160a01b0319831681178455604051919092169283917f8be0079c531659141344cd1fd0a4f28419497f9722a3daafe3b4186f6b6457e09190a35050565b6001600160a01b038116811461033557600080fd5b60006020828403121561043357600080fd5b813561043e8161040c565b9392505050565b60006020828403121561045757600080fd5b815161043e8161040c565b60008261047f57634e487b7160e01b600052601260045260246000fd5b500490565b6000600182016104a457634e487b7160e01b600052601160045260246000fd5b506001019056fea2646970667358221220ee10f2be9903ba1e6eb53f921e73be3a7d449afbf6eb390ab0a4a299d6f54bae64736f6c63430008130033",
    "linkReferences": {}
  },
  "methodIdentifiers": {
    "buyBoosterPack()": "a3006abf",
    "canEnterByOriginHolder()": "01eb528a",
    "owner()": "8da5cb5b",
    "renounceOwnership()": "715018a6",
    "setNFT(address)": "f56e9c66",
    "transferOwnership(address)": "f2fde38b"
  },
  "id": 9
}