{
  "abi": [
    {
      "inputs": [],
      "name": "calc",
      "outputs": [
        {
          "internalType": "uint256",
          "name": "",
          "type": "uint256"
        }
      ],
      "stateMutability": "pure",
      "type": "function"
    },
    {
      "inputs": [
        {
          "internalType": "uint256",
          "name": "jousu",
          "type": "uint256"
        }
      ],
      "name": "nino",
      "outputs": [
        {
          "internalType": "uint256",
          "name": "",
          "type": "uint256"
        }
      ],
      "stateMutability": "view",
      "type": "function"
    },
    {
      "inputs": [],
      "name": "retOneHundred",
      "outputs": [
        {
          "internalType": "uint256",
          "name": "",
          "type": "uint256"
        }
      ],
      "stateMutability": "pure",
      "type": "function"
    },
    {
      "inputs": [
        {
          "internalType": "uint256",
          "name": "val",
          "type": "uint256"
        }
      ],
      "name": "subOneHundred",
      "outputs": [
        {
          "internalType": "uint256",
          "name": "",
          "type": "uint256"
        }
      ],
      "stateMutability": "view",
      "type": "function"
    }
  ],
  "bytecode": {
    "object": "0x60806040526002600055606460015534801561001a57600080fd5b5060dc806100296000396000f3fe6080604052348015600f57600080fd5b506004361060465760003560e01c80632c251d5014604b57806376da3dab14606f57806396f1b6be146081578063d13e66f7146088575b600080fd5b605d6056366004608e565b6000540a90565b60405190815260200160405180910390f35b605d607a366004608e565b6001540390565b600019605d565b6064605d565b600060208284031215609f57600080fd5b503591905056fea2646970667358221220e7881763a7d3020e8ac4c05a78f11e232fe92ba65863eb20d64409642c8fe81364736f6c63430008130033",
    "linkReferences": {}
  },
  "methodIdentifiers": {
    "calc()": "96f1b6be",
    "nino(uint256)": "2c251d50",
    "retOneHundred()": "d13e66f7",
    "subOneHundred(uint256)": "76da3dab"
  },
  "id": 32
}