{
  "abi": [
    {
      "inputs": [
        {
          "internalType": "string",
          "name": "name",
          "type": "string"
        },
        {
          "internalType": "string",
          "name": "symbol",
          "type": "string"
        }
      ],
      "stateMutability": "nonpayable",
      "type": "constructor"
    },
    {
      "anonymous": false,
      "inputs": [
        {
          "indexed": true,
          "internalType": "address",
          "name": "owner",
          "type": "address"
        },
        {
          "indexed": true,
          "internalType": "address",
          "name": "approved",
          "type": "address"
        },
        {
          "indexed": true,
          "internalType": "uint256",
          "name": "tokenId",
          "type": "uint256"
        }
      ],
      "name": "Approval",
      "type": "event"
    },
    {
      "anonymous": false,
      "inputs": [
        {
          "indexed": true,
          "internalType": "address",
          "name": "owner",
          "type": "address"
        },
        {
          "indexed": true,
          "internalType": "address",
          "name": "operator",
          "type": "address"
        },
        {
          "indexed": false,
          "internalType": "bool",
          "name": "approved",
          "type": "bool"
        }
      ],
      "name": "ApprovalForAll",
      "type": "event"
    },
    {
      "anonymous": false,
      "inputs": [
        {
          "indexed": true,
          "internalType": "address",
          "name": "from",
          "type": "address"
        },
        {
          "indexed": true,
          "internalType": "address",
          "name": "to",
          "type": "address"
        },
        {
          "indexed": true,
          "internalType": "uint256",
          "name": "tokenId",
          "type": "uint256"
        }
      ],
      "name": "Transfer",
      "type": "event"
    },
    {
      "inputs": [],
      "name": "DOMAIN_SEPARATOR",
      "outputs": [
        {
          "internalType": "bytes32",
          "name": "",
          "type": "bytes32"
        }
      ],
      "stateMutability": "view",
      "type": "function"
    },
    {
      "inputs": [
        {
          "internalType": "address",
          "name": "to",
          "type": "address"
        },
        {
          "internalType": "uint256",
          "name": "tokenId",
          "type": "uint256"
        }
      ],
      "name": "approve",
      "outputs": [],
      "stateMutability": "nonpayable",
      "type": "function"
    },
    {
      "inputs": [
        {
          "internalType": "address",
          "name": "owner",
          "type": "address"
        }
      ],
      "name": "balanceOf",
      "outputs": [
        {
          "internalType": "uint256",
          "name": "",
          "type": "uint256"
        }
      ],
      "stateMutability": "view",
      "type": "function"
    },
    {
      "inputs": [
        {
          "internalType": "uint256",
          "name": "tokenId",
          "type": "uint256"
        }
      ],
      "name": "getApproved",
      "outputs": [
        {
          "internalType": "address",
          "name": "",
          "type": "address"
        }
      ],
      "stateMutability": "view",
      "type": "function"
    },
    {
      "inputs": [
        {
          "internalType": "address",
          "name": "owner",
          "type": "address"
        },
        {
          "internalType": "address",
          "name": "operator",
          "type": "address"
        }
      ],
      "name": "isApprovedForAll",
      "outputs": [
        {
          "internalType": "bool",
          "name": "",
          "type": "bool"
        }
      ],
      "stateMutability": "view",
      "type": "function"
    },
    {
      "inputs": [
        {
          "internalType": "address",
          "name": "to",
          "type": "address"
        }
      ],
      "name": "mintItem",
      "outputs": [
        {
          "internalType": "uint256",
          "name": "",
          "type": "uint256"
        }
      ],
      "stateMutability": "nonpayable",
      "type": "function"
    },
    {
      "inputs": [],
      "name": "name",
      "outputs": [
        {
          "internalType": "string",
          "name": "",
          "type": "string"
        }
      ],
      "stateMutability": "view",
      "type": "function"
    },
    {
      "inputs": [
        {
          "internalType": "address",
          "name": "owner",
          "type": "address"
        }
      ],
      "name": "nonces",
      "outputs": [
        {
          "internalType": "uint256",
          "name": "",
          "type": "uint256"
        }
      ],
      "stateMutability": "view",
      "type": "function"
    },
    {
      "inputs": [
        {
          "internalType": "uint256",
          "name": "tokenId",
          "type": "uint256"
        }
      ],
      "name": "ownerOf",
      "outputs": [
        {
          "internalType": "address",
          "name": "",
          "type": "address"
        }
      ],
      "stateMutability": "view",
      "type": "function"
    },
    {
      "inputs": [
        {
          "internalType": "address",
          "name": "owner",
          "type": "address"
        },
        {
          "internalType": "address",
          "name": "spender",
          "type": "address"
        },
        {
          "internalType": "uint256",
          "name": "tokenId",
          "type": "uint256"
        },
        {
          "internalType": "uint256",
          "name": "deadline",
          "type": "uint256"
        },
        {
          "internalType": "uint8",
          "name": "v",
          "type": "uint8"
        },
        {
          "internalType": "bytes32",
          "name": "r",
          "type": "bytes32"
        },
        {
          "internalType": "bytes32",
          "name": "s",
          "type": "bytes32"
        }
      ],
      "name": "permit",
      "outputs": [],
      "stateMutability": "nonpayable",
      "type": "function"
    },
    {
      "inputs": [
        {
          "internalType": "address",
          "name": "from",
          "type": "address"
        },
        {
          "internalType": "address",
          "name": "to",
          "type": "address"
        },
        {
          "internalType": "uint256",
          "name": "tokenId",
          "type": "uint256"
        }
      ],
      "name": "safeTransferFrom",
      "outputs": [],
      "stateMutability": "nonpayable",
      "type": "function"
    },
    {
      "inputs": [
        {
          "internalType": "address",
          "name": "from",
          "type": "address"
        },
        {
          "internalType": "address",
          "name": "to",
          "type": "address"
        },
        {
          "internalType": "uint256",
          "name": "tokenId",
          "type": "uint256"
        },
        {
          "internalType": "bytes",
          "name": "data",
          "type": "bytes"
        }
      ],
      "name": "safeTransferFrom",
      "outputs": [],
      "stateMutability": "nonpayable",
      "type": "function"
    },
    {
      "inputs": [
        {
          "internalType": "address",
          "name": "operator",
          "type": "address"
        },
        {
          "internalType": "bool",
          "name": "approved",
          "type": "bool"
        }
      ],
      "name": "setApprovalForAll",
      "outputs": [],
      "stateMutability": "nonpayable",
      "type": "function"
    },
    {
      "inputs": [
        {
          "internalType": "bytes4",
          "name": "interfaceId",
          "type": "bytes4"
        }
      ],
      "name": "supportsInterface",
      "outputs": [
        {
          "internalType": "bool",
          "name": "",
          "type": "bool"
        }
      ],
      "stateMutability": "view",
      "type": "function"
    },
    {
      "inputs": [],
      "name": "symbol",
      "outputs": [
        {
          "internalType": "string",
          "name": "",
          "type": "string"
        }
      ],
      "stateMutability": "view",
      "type": "function"
    },
    {
      "inputs": [
        {
          "internalType": "uint256",
          "name": "tokenId",
          "type": "uint256"
        }
      ],
      "name": "tokenURI",
      "outputs": [
        {
          "internalType": "string",
          "name": "",
          "type": "string"
        }
      ],
      "stateMutability": "view",
      "type": "function"
    },
    {
      "inputs": [
        {
          "internalType": "address",
          "name": "from",
          "type": "address"
        },
        {
          "internalType": "address",
          "name": "to",
          "type": "address"
        },
        {
          "internalType": "uint256",
          "name": "tokenId",
          "type": "uint256"
        }
      ],
      "name": "transferFrom",
      "outputs": [],
      "stateMutability": "nonpayable",
      "type": "function"
    }
  ],
  "bytecode": {
    "object": "0x6101606040527f6e71edae12b1b97f4d1f60370fef10105fa2faae0126114a169c64845d6126c9610140523480156200003757600080fd5b5060405162001dfa38038062001dfa8339810160408190526200005a91620001f8565b6040805180820190915260018152603160f81b60208201528290819081846000620000868382620002f1565b506001620000958282620002f1565b5050825160208085019190912083518483012060e08290526101008190524660a0818152604080517f8b73c3c69bb8fe3d512ecc4cf759cc79239f7b179b0ffacaa9a75d522b39400f81880181905281830187905260608201869052608082019490945230818401528151808203909301835260c0019052805194019390932091935091906080523060c0526101205250620003bd95505050505050565b634e487b7160e01b600052604160045260246000fd5b600082601f8301126200015b57600080fd5b81516001600160401b038082111562000178576200017862000133565b604051601f8301601f19908116603f01168101908282118183101715620001a357620001a362000133565b81604052838152602092508683858801011115620001c057600080fd5b600091505b83821015620001e45785820183015181830184015290820190620001c5565b600093810190920192909252949350505050565b600080604083850312156200020c57600080fd5b82516001600160401b03808211156200022457600080fd5b620002328683870162000149565b935060208501519150808211156200024957600080fd5b50620002588582860162000149565b9150509250929050565b600181811c908216806200027757607f821691505b6020821081036200029857634e487b7160e01b600052602260045260246000fd5b50919050565b601f821115620002ec57600081815260208120601f850160051c81016020861015620002c75750805b601f850160051c820191505b81811015620002e857828155600101620002d3565b5050505b505050565b81516001600160401b038111156200030d576200030d62000133565b62000325816200031e845462000262565b846200029e565b602080601f8311600181146200035d5760008415620003445750858301515b600019600386901b1c1916600185901b178555620002e8565b600085815260208120601f198616915b828110156200038e578886015182559484019460019091019084016200036d565b5085821015620003ad5787850151600019600388901b60f8161c191681555b5050505050600190811b01905550565b60805160a05160c05160e0516101005161012051610140516119e26200041860003960006107d901526000610c2501526000610c7401526000610c4f01526000610ba801526000610bd201526000610bfc01526119e26000f3fe608060405234801561001057600080fd5b506004361061010b5760003560e01c8063691c65d4116100a2578063a22cb46511610071578063a22cb4651461021d578063b88d4fde14610230578063c87b56dd14610243578063d505accf14610256578063e985e9c51461026957600080fd5b8063691c65d4146101dc57806370a08231146101ef5780637ecebe001461020257806395d89b411461021557600080fd5b806323b872dd116100de57806323b872dd1461018d5780633644e515146101a057806342842e0e146101b65780636352211e146101c957600080fd5b806301ffc9a71461011057806306fdde0314610138578063081812fc1461014d578063095ea7b314610178575b600080fd5b61012361011e366004611499565b6102a5565b60405190151581526020015b60405180910390f35b6101406102f7565b60405161012f9190611506565b61016061015b366004611519565b610389565b6040516001600160a01b03909116815260200161012f565b61018b61018636600461154e565b6103b0565b005b61018b61019b366004611578565b6104ca565b6101a86104fb565b60405190815260200161012f565b61018b6101c4366004611578565b61050a565b6101606101d7366004611519565b610525565b6101a86101ea3660046115b4565b610585565b6101a86101fd3660046115b4565b6105ac565b6101a86102103660046115b4565b610632565b610140610650565b61018b61022b3660046115cf565b61065f565b61018b61023e366004611621565b61066e565b610140610251366004611519565b6106a6565b61018b6102643660046116fd565b61070d565b610123610277366004611770565b6001600160a01b03918216600090815260056020908152604080832093909416825291909152205460ff1690565b60006001600160e01b031982166380ac58cd60e01b14806102d657506001600160e01b03198216635b5e139f60e01b145b806102f157506301ffc9a760e01b6001600160e01b03198316145b92915050565b606060008054610306906117a3565b80601f0160208091040260200160405190810160405280929190818152602001828054610332906117a3565b801561037f5780601f106103545761010080835404028352916020019161037f565b820191906000526020600020905b81548152906001019060200180831161036257829003601f168201915b5050505050905090565b6000610394826108e8565b506000908152600460205260409020546001600160a01b031690565b60006103bb82610525565b9050806001600160a01b0316836001600160a01b03160361042d5760405162461bcd60e51b815260206004820152602160248201527f4552433732313a20617070726f76616c20746f2063757272656e74206f776e656044820152603960f91b60648201526084015b60405180910390fd5b336001600160a01b038216148061044957506104498133610277565b6104bb5760405162461bcd60e51b815260206004820152603d60248201527f4552433732313a20617070726f76652063616c6c6572206973206e6f7420746f60448201527f6b656e206f776e6572206f7220617070726f76656420666f7220616c6c0000006064820152608401610424565b6104c5838361094a565b505050565b6104d433826109b8565b6104f05760405162461bcd60e51b8152600401610424906117d7565b6104c5838383610a37565b6000610505610b9b565b905090565b6104c58383836040518060200160405280600081525061066e565b6000818152600260205260408120546001600160a01b0316806102f15760405162461bcd60e51b8152602060048201526018602482015277115490cdcc8c4e881a5b9d985b1a59081d1bdad95b88125160421b6044820152606401610424565b6000610595600780546001019055565b60006105a060075490565b90506102f18382610cc2565b60006001600160a01b0382166106165760405162461bcd60e51b815260206004820152602960248201527f4552433732313a2061646472657373207a65726f206973206e6f7420612076616044820152683634b21037bbb732b960b91b6064820152608401610424565b506001600160a01b031660009081526003602052604090205490565b6001600160a01b0381166000908152600660205260408120546102f1565b606060018054610306906117a3565b61066a338383610e4d565b5050565b61067833836109b8565b6106945760405162461bcd60e51b8152600401610424906117d7565b6106a084848484610f1b565b50505050565b60606106b1826108e8565b60006106bb610f4e565b905060008151116106db5760405180602001604052806000815250610706565b806106e584610f6e565b6040516020016106f6929190611824565b6040516020818303038152906040525b9392505050565b8342111561075d5760405162461bcd60e51b815260206004820152601e60248201527f4552433732315065726d69743a206578706972656420646561646c696e6500006044820152606401610424565b61076685610525565b6001600160a01b0316876001600160a01b0316146107d55760405162461bcd60e51b815260206004820152602660248201527f455243373231506572696d743a206f776e6572206973206e6f7420746f6b656e6044820152651037bbb732b960d11b6064820152608401610424565b60007f00000000000000000000000000000000000000000000000000000000000000008888886108048c611001565b6040805160208101969096526001600160a01b0394851690860152929091166060840152608083015260a082015260c0810186905260e001604051602081830303815290604052805190602001209050600061085f82611029565b9050600061086f82878787611077565b9050896001600160a01b0316816001600160a01b0316146108d25760405162461bcd60e51b815260206004820152601f60248201527f4552433732315065726d69743a20696e76616c6964207369676e6174757265006044820152606401610424565b6108dc898961094a565b50505050505050505050565b6000818152600260205260409020546001600160a01b03166109475760405162461bcd60e51b8152602060048201526018602482015277115490cdcc8c4e881a5b9d985b1a59081d1bdad95b88125160421b6044820152606401610424565b50565b600081815260046020526040902080546001600160a01b0319166001600160a01b038416908117909155819061097f82610525565b6001600160a01b03167f8c5be1e5ebec7d5bd14f71427d1e84f3dd0314c0f7b2291e5b200ac8c7c3b92560405160405180910390a45050565b6000806109c483610525565b9050806001600160a01b0316846001600160a01b03161480610a0b57506001600160a01b0380821660009081526005602090815260408083209388168352929052205460ff165b80610a2f5750836001600160a01b0316610a2484610389565b6001600160a01b0316145b949350505050565b826001600160a01b0316610a4a82610525565b6001600160a01b031614610a705760405162461bcd60e51b815260040161042490611853565b6001600160a01b038216610ad25760405162461bcd60e51b8152602060048201526024808201527f4552433732313a207472616e7366657220746f20746865207a65726f206164646044820152637265737360e01b6064820152608401610424565b826001600160a01b0316610ae582610525565b6001600160a01b031614610b0b5760405162461bcd60e51b815260040161042490611853565b600081815260046020908152604080832080546001600160a01b03199081169091556001600160a01b0387811680865260038552838620805460001901905590871680865283862080546001019055868652600290945282852080549092168417909155905184937fddf252ad1be2c89b69c2b068fc378daa952ba7f163c4a11628f55a4df523b3ef91a4505050565b6000306001600160a01b037f000000000000000000000000000000000000000000000000000000000000000016148015610bf457507f000000000000000000000000000000000000000000000000000000000000000046145b15610c1e57507f000000000000000000000000000000000000000000000000000000000000000090565b50604080517f00000000000000000000000000000000000000000000000000000000000000006020808301919091527f0000000000000000000000000000000000000000000000000000000000000000828401527f000000000000000000000000000000000000000000000000000000000000000060608301524660808301523060a0808401919091528351808403909101815260c0909201909252805191012090565b6001600160a01b038216610d185760405162461bcd60e51b815260206004820181905260248201527f4552433732313a206d696e7420746f20746865207a65726f20616464726573736044820152606401610424565b6000818152600260205260409020546001600160a01b031615610d7d5760405162461bcd60e51b815260206004820152601c60248201527f4552433732313a20746f6b656e20616c7265616479206d696e746564000000006044820152606401610424565b6000818152600260205260409020546001600160a01b031615610de25760405162461bcd60e51b815260206004820152601c60248201527f4552433732313a20746f6b656e20616c7265616479206d696e746564000000006044820152606401610424565b6001600160a01b038216600081815260036020908152604080832080546001019055848352600290915280822080546001600160a01b0319168417905551839291907fddf252ad1be2c89b69c2b068fc378daa952ba7f163c4a11628f55a4df523b3ef908290a45050565b816001600160a01b0316836001600160a01b031603610eae5760405162461bcd60e51b815260206004820152601960248201527f4552433732313a20617070726f766520746f2063616c6c6572000000000000006044820152606401610424565b6001600160a01b03838116600081815260056020908152604080832094871680845294825291829020805460ff191686151590811790915591519182527f17307eab39ab6107e8899845ad3d59bd9653f200f220920489ca2b5937696c31910160405180910390a3505050565b610f26848484610a37565b610f328484848461109f565b6106a05760405162461bcd60e51b815260040161042490611898565b606060405180608001604052806052815260200161195b60529139905090565b60606000610f7b8361119d565b600101905060008167ffffffffffffffff811115610f9b57610f9b61160b565b6040519080825280601f01601f191660200182016040528015610fc5576020820181803683370190505b5090508181016020015b600019016f181899199a1a9b1b9c1cb0b131b232b360811b600a86061a8153600a8504945084610fcf57509392505050565b6001600160a01b03811660009081526006602052604090208054600181018255905b50919050565b60006102f1611036610b9b565b8360405161190160f01b6020820152602281018390526042810182905260009060620160405160208183030381529060405280519060200120905092915050565b600080600061108887878787611275565b9150915061109581611339565b5095945050505050565b60006001600160a01b0384163b1561119557604051630a85bd0160e11b81526001600160a01b0385169063150b7a02906110e39033908990889088906004016118ea565b6020604051808303816000875af192505050801561111e575060408051601f3d908101601f1916820190925261111b91810190611927565b60015b61117b573d80801561114c576040519150601f19603f3d011682016040523d82523d6000602084013e611151565b606091505b5080516000036111735760405162461bcd60e51b815260040161042490611898565b805181602001fd5b6001600160e01b031916630a85bd0160e11b149050610a2f565b506001610a2f565b60008072184f03e93ff9f4daa797ed6e38ed64bf6a1f0160401b83106111dc5772184f03e93ff9f4daa797ed6e38ed64bf6a1f0160401b830492506040015b6d04ee2d6d415b85acef81000000008310611208576d04ee2d6d415b85acef8100000000830492506020015b662386f26fc10000831061122657662386f26fc10000830492506010015b6305f5e100831061123e576305f5e100830492506008015b612710831061125257612710830492506004015b60648310611264576064830492506002015b600a83106102f15760010192915050565b6000807f7fffffffffffffffffffffffffffffff5d576e7357a4501ddfe92f46681b20a08311156112ac5750600090506003611330565b6040805160008082526020820180845289905260ff881692820192909252606081018690526080810185905260019060a0016020604051602081039080840390855afa158015611300573d6000803e3d6000fd5b5050604051601f1901519150506001600160a01b03811661132957600060019250925050611330565b9150600090505b94509492505050565b600081600481111561134d5761134d611944565b036113555750565b600181600481111561136957611369611944565b036113b65760405162461bcd60e51b815260206004820152601860248201527f45434453413a20696e76616c6964207369676e617475726500000000000000006044820152606401610424565b60028160048111156113ca576113ca611944565b036114175760405162461bcd60e51b815260206004820152601f60248201527f45434453413a20696e76616c6964207369676e6174757265206c656e677468006044820152606401610424565b600381600481111561142b5761142b611944565b036109475760405162461bcd60e51b815260206004820152602260248201527f45434453413a20696e76616c6964207369676e6174757265202773272076616c604482015261756560f01b6064820152608401610424565b6001600160e01b03198116811461094757600080fd5b6000602082840312156114ab57600080fd5b813561070681611483565b60005b838110156114d15781810151838201526020016114b9565b50506000910152565b600081518084526114f28160208601602086016114b6565b601f01601f19169290920160200192915050565b60208152600061070660208301846114da565b60006020828403121561152b57600080fd5b5035919050565b80356001600160a01b038116811461154957600080fd5b919050565b6000806040838503121561156157600080fd5b61156a83611532565b946020939093013593505050565b60008060006060848603121561158d57600080fd5b61159684611532565b92506115a460208501611532565b9150604084013590509250925092565b6000602082840312156115c657600080fd5b61070682611532565b600080604083850312156115e257600080fd5b6115eb83611532565b91506020830135801515811461160057600080fd5b809150509250929050565b634e487b7160e01b600052604160045260246000fd5b6000806000806080858703121561163757600080fd5b61164085611532565b935061164e60208601611532565b925060408501359150606085013567ffffffffffffffff8082111561167257600080fd5b818701915087601f83011261168657600080fd5b8135818111156116985761169861160b565b604051601f8201601f19908116603f011681019083821181831017156116c0576116c061160b565b816040528281528a60208487010111156116d957600080fd5b82602086016020830137600060208483010152809550505050505092959194509250565b600080600080600080600060e0888a03121561171857600080fd5b61172188611532565b965061172f60208901611532565b95506040880135945060608801359350608088013560ff8116811461175357600080fd5b9699959850939692959460a0840135945060c09093013592915050565b6000806040838503121561178357600080fd5b61178c83611532565b915061179a60208401611532565b90509250929050565b600181811c908216806117b757607f821691505b60208210810361102357634e487b7160e01b600052602260045260246000fd5b6020808252602d908201527f4552433732313a2063616c6c6572206973206e6f7420746f6b656e206f776e6560408201526c1c881bdc88185c1c1c9bdd9959609a1b606082015260800190565b600083516118368184602088016114b6565b83519083019061184a8183602088016114b6565b01949350505050565b60208082526025908201527f4552433732313a207472616e736665722066726f6d20696e636f72726563742060408201526437bbb732b960d91b606082015260800190565b60208082526032908201527f4552433732313a207472616e7366657220746f206e6f6e20455243373231526560408201527131b2b4bb32b91034b6b83632b6b2b73a32b960711b606082015260800190565b6001600160a01b038581168252841660208201526040810183905260806060820181905260009061191d908301846114da565b9695505050505050565b60006020828403121561193957600080fd5b815161070681611483565b634e487b7160e01b600052602160045260246000fdfe68747470733a2f2f696b7a7474702e6d7970696e6174612e636c6f75642f697066732f516d51466b4c535179736a393473354776544850797a547872617777746a67696959533254424c677276773843572fa2646970667358221220729c8b572de46d8333f442f8a9b5fd563b0eed38c5b18cdd502f6e9ff05ad61c64736f6c63430008130033",
    "linkReferences": {}
  },
  "methodIdentifiers": {
    "DOMAIN_SEPARATOR()": "3644e515",
    "approve(address,uint256)": "095ea7b3",
    "balanceOf(address)": "70a08231",
    "getApproved(uint256)": "081812fc",
    "isApprovedForAll(address,address)": "e985e9c5",
    "mintItem(address)": "691c65d4",
    "name()": "06fdde03",
    "nonces(address)": "7ecebe00",
    "ownerOf(uint256)": "6352211e",
    "permit(address,address,uint256,uint256,uint8,bytes32,bytes32)": "d505accf",
    "safeTransferFrom(address,address,uint256)": "42842e0e",
    "safeTransferFrom(address,address,uint256,bytes)": "b88d4fde",
    "setApprovalForAll(address,bool)": "a22cb465",
    "supportsInterface(bytes4)": "01ffc9a7",
    "symbol()": "95d89b41",
    "tokenURI(uint256)": "c87b56dd",
    "transferFrom(address,address,uint256)": "23b872dd"
  },
  "id": 12
}