{
  "abi": [
    {
      "inputs": [
        {
          "internalType": "string",
          "name": "name",
          "type": "string"
        },
        {
          "internalType": "uint256",
          "name": "initialSupply",
          "type": "uint256"
        },
        {
          "internalType": "address[]",
          "name": "testers",
          "type": "address[]"
        }
      ],
      "stateMutability": "nonpayable",
      "type": "constructor"
    },
    {
      "anonymous": false,
      "inputs": [
        {
          "indexed": true,
          "internalType": "address",
          "name": "owner",
          "type": "address"
        },
        {
          "indexed": true,
          "internalType": "address",
          "name": "spender",
          "type": "address"
        },
        {
          "indexed": false,
          "internalType": "uint256",
          "name": "value",
          "type": "uint256"
        }
      ],
      "name": "Approval",
      "type": "event"
    },
    {
      "anonymous": false,
      "inputs": [
        {
          "indexed": true,
          "internalType": "address",
          "name": "from",
          "type": "address"
        },
        {
          "indexed": true,
          "internalType": "address",
          "name": "to",
          "type": "address"
        },
        {
          "indexed": false,
          "internalType": "uint256",
          "name": "value",
          "type": "uint256"
        }
      ],
      "name": "Transfer",
      "type": "event"
    },
    {
      "inputs": [],
      "name": "DOMAIN_SEPARATOR",
      "outputs": [
        {
          "internalType": "bytes32",
          "name": "",
          "type": "bytes32"
        }
      ],
      "stateMutability": "view",
      "type": "function"
    },
    {
      "inputs": [
        {
          "internalType": "address",
          "name": "owner",
          "type": "address"
        },
        {
          "internalType": "address",
          "name": "spender",
          "type": "address"
        }
      ],
      "name": "allowance",
      "outputs": [
        {
          "internalType": "uint256",
          "name": "",
          "type": "uint256"
        }
      ],
      "stateMutability": "view",
      "type": "function"
    },
    {
      "inputs": [
        {
          "internalType": "address",
          "name": "spender",
          "type": "address"
        },
        {
          "internalType": "uint256",
          "name": "amount",
          "type": "uint256"
        }
      ],
      "name": "approve",
      "outputs": [
        {
          "internalType": "bool",
          "name": "",
          "type": "bool"
        }
      ],
      "stateMutability": "nonpayable",
      "type": "function"
    },
    {
      "inputs": [
        {
          "internalType": "address",
          "name": "account",
          "type": "address"
        }
      ],
      "name": "balanceOf",
      "outputs": [
        {
          "internalType": "uint256",
          "name": "",
          "type": "uint256"
        }
      ],
      "stateMutability": "view",
      "type": "function"
    },
    {
      "inputs": [],
      "name": "decimals",
      "outputs": [
        {
          "internalType": "uint8",
          "name": "",
          "type": "uint8"
        }
      ],
      "stateMutability": "view",
      "type": "function"
    },
    {
      "inputs": [
        {
          "internalType": "address",
          "name": "spender",
          "type": "address"
        },
        {
          "internalType": "uint256",
          "name": "subtractedValue",
          "type": "uint256"
        }
      ],
      "name": "decreaseAllowance",
      "outputs": [
        {
          "internalType": "bool",
          "name": "",
          "type": "bool"
        }
      ],
      "stateMutability": "nonpayable",
      "type": "function"
    },
    {
      "inputs": [
        {
          "internalType": "address",
          "name": "spender",
          "type": "address"
        },
        {
          "internalType": "uint256",
          "name": "addedValue",
          "type": "uint256"
        }
      ],
      "name": "increaseAllowance",
      "outputs": [
        {
          "internalType": "bool",
          "name": "",
          "type": "bool"
        }
      ],
      "stateMutability": "nonpayable",
      "type": "function"
    },
    {
      "inputs": [],
      "name": "name",
      "outputs": [
        {
          "internalType": "string",
          "name": "",
          "type": "string"
        }
      ],
      "stateMutability": "view",
      "type": "function"
    },
    {
      "inputs": [
        {
          "internalType": "address",
          "name": "owner",
          "type": "address"
        }
      ],
      "name": "nonces",
      "outputs": [
        {
          "internalType": "uint256",
          "name": "",
          "type": "uint256"
        }
      ],
      "stateMutability": "view",
      "type": "function"
    },
    {
      "inputs": [
        {
          "internalType": "address",
          "name": "owner",
          "type": "address"
        },
        {
          "internalType": "address",
          "name": "spender",
          "type": "address"
        },
        {
          "internalType": "uint256",
          "name": "value",
          "type": "uint256"
        },
        {
          "internalType": "uint256",
          "name": "deadline",
          "type": "uint256"
        },
        {
          "internalType": "uint8",
          "name": "v",
          "type": "uint8"
        },
        {
          "internalType": "bytes32",
          "name": "r",
          "type": "bytes32"
        },
        {
          "internalType": "bytes32",
          "name": "s",
          "type": "bytes32"
        }
      ],
      "name": "permit",
      "outputs": [],
      "stateMutability": "nonpayable",
      "type": "function"
    },
    {
      "inputs": [],
      "name": "symbol",
      "outputs": [
        {
          "internalType": "string",
          "name": "",
          "type": "string"
        }
      ],
      "stateMutability": "view",
      "type": "function"
    },
    {
      "inputs": [],
      "name": "totalSupply",
      "outputs": [
        {
          "internalType": "uint256",
          "name": "",
          "type": "uint256"
        }
      ],
      "stateMutability": "view",
      "type": "function"
    },
    {
      "inputs": [
        {
          "internalType": "address",
          "name": "to",
          "type": "address"
        },
        {
          "internalType": "uint256",
          "name": "amount",
          "type": "uint256"
        }
      ],
      "name": "transfer",
      "outputs": [
        {
          "internalType": "bool",
          "name": "",
          "type": "bool"
        }
      ],
      "stateMutability": "nonpayable",
      "type": "function"
    },
    {
      "inputs": [
        {
          "internalType": "address",
          "name": "from",
          "type": "address"
        },
        {
          "internalType": "address",
          "name": "to",
          "type": "address"
        },
        {
          "internalType": "uint256",
          "name": "amount",
          "type": "uint256"
        }
      ],
      "name": "transferFrom",
      "outputs": [
        {
          "internalType": "bool",
          "name": "",
          "type": "bool"
        }
      ],
      "stateMutability": "nonpayable",
      "type": "function"
    }
  ],
  "bytecode": {
    "object": "0x6101406040523480156200001257600080fd5b506040516200162838038062001628833981016040819052620000359162000356565b8280604051806040016040528060018152602001603160f81b81525085604051806040016040528060018152602001603160f81b81525081600390816200007d9190620004c9565b5060046200008c8282620004c9565b5050825160209384012082519284019290922060e08390526101008190524660a0818152604080517f8b73c3c69bb8fe3d512ecc4cf759cc79239f7b179b0ffacaa9a75d522b39400f818901819052818301979097526060810194909452608080850193909352308483018190528151808603909301835260c094850190915281519190960120905292909252610120525050805160005b8181101562000193576200018a83828151811062000146576200014662000595565b6020026020010151836200015f6200019e60201b60201c565b6200016c90600a620006c0565b620001789088620006d8565b620001849190620006f2565b620001a3565b60010162000124565b50505050506200072b565b601290565b6001600160a01b038216620001fe5760405162461bcd60e51b815260206004820152601f60248201527f45524332303a206d696e7420746f20746865207a65726f206164647265737300604482015260640160405180910390fd5b806002600082825462000212919062000715565b90915550506001600160a01b038216600081815260208181526040808320805486019055518481527fddf252ad1be2c89b69c2b068fc378daa952ba7f163c4a11628f55a4df523b3ef910160405180910390a35050565b505050565b634e487b7160e01b600052604160045260246000fd5b604051601f8201601f191681016001600160401b0381118282101715620002af57620002af6200026e565b604052919050565b600082601f830112620002c957600080fd5b815160206001600160401b03821115620002e757620002e76200026e565b8160051b620002f882820162000284565b92835284810182019282810190878511156200031357600080fd5b83870192505b848310156200034b5782516001600160a01b03811681146200033b5760008081fd5b8252918301919083019062000319565b979650505050505050565b6000806000606084860312156200036c57600080fd5b83516001600160401b03808211156200038457600080fd5b818601915086601f8301126200039957600080fd5b815181811115620003ae57620003ae6200026e565b6020620003c4601f8301601f1916820162000284565b8281528982848701011115620003d957600080fd5b60005b83811015620003f9578581018301518282018401528201620003dc565b506000928101820192909252870151604088015191965094509150808211156200042257600080fd5b506200043186828701620002b7565b9150509250925092565b600181811c908216806200045057607f821691505b6020821081036200047157634e487b7160e01b600052602260045260246000fd5b50919050565b601f8211156200026957600081815260208120601f850160051c81016020861015620004a05750805b601f850160051c820191505b81811015620004c157828155600101620004ac565b505050505050565b81516001600160401b03811115620004e557620004e56200026e565b620004fd81620004f684546200043b565b8462000477565b602080601f8311600181146200053557600084156200051c5750858301515b600019600386901b1c1916600185901b178555620004c1565b600085815260208120601f198616915b82811015620005665788860151825594840194600190910190840162000545565b5085821015620005855787850151600019600388901b60f8161c191681555b5050505050600190811b01905550565b634e487b7160e01b600052603260045260246000fd5b634e487b7160e01b600052601160045260246000fd5b600181815b8085111562000602578160001904821115620005e657620005e6620005ab565b80851615620005f457918102915b93841c9390800290620005c6565b509250929050565b6000826200061b57506001620006ba565b816200062a57506000620006ba565b81600181146200064357600281146200064e576200066e565b6001915050620006ba565b60ff841115620006625762000662620005ab565b50506001821b620006ba565b5060208310610133831016604e8410600b841016171562000693575081810a620006ba565b6200069f8383620005c1565b8060001904821115620006b657620006b6620005ab565b0290505b92915050565b6000620006d160ff8416836200060a565b9392505050565b8082028115828204841417620006ba57620006ba620005ab565b6000826200071057634e487b7160e01b600052601260045260246000fd5b500490565b80820180821115620006ba57620006ba620005ab565b60805160a05160c05160e0516101005161012051610ead6200077b60003960006109280152600061097701526000610952015260006108ab015260006108d5015260006108ff0152610ead6000f3fe608060405234801561001057600080fd5b50600436106100ea5760003560e01c806370a082311161008c578063a457c2d711610066578063a457c2d7146101c3578063a9059cbb146101d6578063d505accf146101e9578063dd62ed3e146101fe57600080fd5b806370a082311461017f5780637ecebe00146101a857806395d89b41146101bb57600080fd5b806323b872dd116100c857806323b872dd14610142578063313ce567146101555780633644e51514610164578063395093511461016c57600080fd5b806306fdde03146100ef578063095ea7b31461010d57806318160ddd14610130575b600080fd5b6100f7610211565b6040516101049190610c74565b60405180910390f35b61012061011b366004610cde565b6102a3565b6040519015158152602001610104565b6002545b604051908152602001610104565b610120610150366004610d08565b6102bd565b60405160128152602001610104565b6101346102e1565b61012061017a366004610cde565b6102f0565b61013461018d366004610d44565b6001600160a01b031660009081526020819052604090205490565b6101346101b6366004610d44565b610312565b6100f7610330565b6101206101d1366004610cde565b61033f565b6101206101e4366004610cde565b6103bf565b6101fc6101f7366004610d66565b6103cd565b005b61013461020c366004610dd9565b610531565b60606003805461022090610e0c565b80601f016020809104026020016040519081016040528092919081815260200182805461024c90610e0c565b80156102995780601f1061026e57610100808354040283529160200191610299565b820191906000526020600020905b81548152906001019060200180831161027c57829003601f168201915b5050505050905090565b6000336102b181858561055c565b60019150505b92915050565b6000336102cb858285610680565b6102d68585856106fa565b506001949350505050565b60006102eb61089e565b905090565b6000336102b18185856103038383610531565b61030d9190610e40565b61055c565b6001600160a01b0381166000908152600560205260408120546102b7565b60606004805461022090610e0c565b6000338161034d8286610531565b9050838110156103b25760405162461bcd60e51b815260206004820152602560248201527f45524332303a2064656372656173656420616c6c6f77616e63652062656c6f77604482015264207a65726f60d81b60648201526084015b60405180910390fd5b6102d6828686840361055c565b6000336102b18185856106fa565b8342111561041d5760405162461bcd60e51b815260206004820152601d60248201527f45524332305065726d69743a206578706972656420646561646c696e6500000060448201526064016103a9565b60007f6e71edae12b1b97f4d1f60370fef10105fa2faae0126114a169c64845d6126c988888861044c8c6109c5565b6040805160208101969096526001600160a01b0394851690860152929091166060840152608083015260a082015260c0810186905260e00160405160208183030381529060405280519060200120905060006104a7826109ed565b905060006104b782878787610a3b565b9050896001600160a01b0316816001600160a01b03161461051a5760405162461bcd60e51b815260206004820152601e60248201527f45524332305065726d69743a20696e76616c6964207369676e6174757265000060448201526064016103a9565b6105258a8a8a61055c565b50505050505050505050565b6001600160a01b03918216600090815260016020908152604080832093909416825291909152205490565b6001600160a01b0383166105be5760405162461bcd60e51b8152602060048201526024808201527f45524332303a20617070726f76652066726f6d20746865207a65726f206164646044820152637265737360e01b60648201526084016103a9565b6001600160a01b03821661061f5760405162461bcd60e51b815260206004820152602260248201527f45524332303a20617070726f766520746f20746865207a65726f206164647265604482015261737360f01b60648201526084016103a9565b6001600160a01b0383811660008181526001602090815260408083209487168084529482529182902085905590518481527f8c5be1e5ebec7d5bd14f71427d1e84f3dd0314c0f7b2291e5b200ac8c7c3b925910160405180910390a3505050565b600061068c8484610531565b905060001981146106f457818110156106e75760405162461bcd60e51b815260206004820152601d60248201527f45524332303a20696e73756666696369656e7420616c6c6f77616e636500000060448201526064016103a9565b6106f4848484840361055c565b50505050565b6001600160a01b03831661075e5760405162461bcd60e51b815260206004820152602560248201527f45524332303a207472616e736665722066726f6d20746865207a65726f206164604482015264647265737360d81b60648201526084016103a9565b6001600160a01b0382166107c05760405162461bcd60e51b815260206004820152602360248201527f45524332303a207472616e7366657220746f20746865207a65726f206164647260448201526265737360e81b60648201526084016103a9565b6001600160a01b038316600090815260208190526040902054818110156108385760405162461bcd60e51b815260206004820152602660248201527f45524332303a207472616e7366657220616d6f756e7420657863656564732062604482015265616c616e636560d01b60648201526084016103a9565b6001600160a01b03848116600081815260208181526040808320878703905593871680835291849020805487019055925185815290927fddf252ad1be2c89b69c2b068fc378daa952ba7f163c4a11628f55a4df523b3ef910160405180910390a36106f4565b6000306001600160a01b037f0000000000000000000000000000000000000000000000000000000000000000161480156108f757507f000000000000000000000000000000000000000000000000000000000000000046145b1561092157507f000000000000000000000000000000000000000000000000000000000000000090565b50604080517f00000000000000000000000000000000000000000000000000000000000000006020808301919091527f0000000000000000000000000000000000000000000000000000000000000000828401527f000000000000000000000000000000000000000000000000000000000000000060608301524660808301523060a0808401919091528351808403909101815260c0909201909252805191012090565b6001600160a01b03811660009081526005602052604090208054600181018255905b50919050565b60006102b76109fa61089e565b8360405161190160f01b6020820152602281018390526042810182905260009060620160405160208183030381529060405280519060200120905092915050565b6000806000610a4c87878787610a63565b91509150610a5981610b27565b5095945050505050565b6000807f7fffffffffffffffffffffffffffffff5d576e7357a4501ddfe92f46681b20a0831115610a9a5750600090506003610b1e565b6040805160008082526020820180845289905260ff881692820192909252606081018690526080810185905260019060a0016020604051602081039080840390855afa158015610aee573d6000803e3d6000fd5b5050604051601f1901519150506001600160a01b038116610b1757600060019250925050610b1e565b9150600090505b94509492505050565b6000816004811115610b3b57610b3b610e61565b03610b435750565b6001816004811115610b5757610b57610e61565b03610ba45760405162461bcd60e51b815260206004820152601860248201527f45434453413a20696e76616c6964207369676e6174757265000000000000000060448201526064016103a9565b6002816004811115610bb857610bb8610e61565b03610c055760405162461bcd60e51b815260206004820152601f60248201527f45434453413a20696e76616c6964207369676e6174757265206c656e6774680060448201526064016103a9565b6003816004811115610c1957610c19610e61565b03610c715760405162461bcd60e51b815260206004820152602260248201527f45434453413a20696e76616c6964207369676e6174757265202773272076616c604482015261756560f01b60648201526084016103a9565b50565b600060208083528351808285015260005b81811015610ca157858101830151858201604001528201610c85565b506000604082860101526040601f19601f8301168501019250505092915050565b80356001600160a01b0381168114610cd957600080fd5b919050565b60008060408385031215610cf157600080fd5b610cfa83610cc2565b946020939093013593505050565b600080600060608486031215610d1d57600080fd5b610d2684610cc2565b9250610d3460208501610cc2565b9150604084013590509250925092565b600060208284031215610d5657600080fd5b610d5f82610cc2565b9392505050565b600080600080600080600060e0888a031215610d8157600080fd5b610d8a88610cc2565b9650610d9860208901610cc2565b95506040880135945060608801359350608088013560ff81168114610dbc57600080fd5b9699959850939692959460a0840135945060c09093013592915050565b60008060408385031215610dec57600080fd5b610df583610cc2565b9150610e0360208401610cc2565b90509250929050565b600181811c90821680610e2057607f821691505b6020821081036109e757634e487b7160e01b600052602260045260246000fd5b808201808211156102b757634e487b7160e01b600052601160045260246000fd5b634e487b7160e01b600052602160045260246000fdfea264697066735822122083cd082d70f5666e8c0820939edfd161cbd02aa8963ba85119fb45976b54d10964736f6c63430008130033",
    "linkReferences": {}
  },
  "methodIdentifiers": {
    "DOMAIN_SEPARATOR()": "3644e515",
    "allowance(address,address)": "dd62ed3e",
    "approve(address,uint256)": "095ea7b3",
    "balanceOf(address)": "70a08231",
    "decimals()": "313ce567",
    "decreaseAllowance(address,uint256)": "a457c2d7",
    "increaseAllowance(address,uint256)": "39509351",
    "name()": "06fdde03",
    "nonces(address)": "7ecebe00",
    "permit(address,address,uint256,uint256,uint8,bytes32,bytes32)": "d505accf",
    "symbol()": "95d89b41",
    "totalSupply()": "18160ddd",
    "transfer(address,uint256)": "a9059cbb",
    "transferFrom(address,address,uint256)": "23b872dd"
  },
  "id": 19
}