{
  "abi": [
    {
      "inputs": [
        {
          "components": [
            {
              "internalType": "uint256",
              "name": "saleId",
              "type": "uint256"
            },
            {
              "internalType": "uint256",
              "name": "amount",
              "type": "uint256"
            },
            {
              "internalType": "uint256",
              "name": "deadline",
              "type": "uint256"
            },
            {
              "internalType": "uint8",
              "name": "v",
              "type": "uint8"
            },
            {
              "internalType": "bytes32",
              "name": "r",
              "type": "bytes32"
            },
            {
              "internalType": "bytes32",
              "name": "s",
              "type": "bytes32"
            }
          ],
          "internalType": "struct SAnswerPermit.MatchOrderArgs",
          "name": "_args",
          "type": "tuple"
        }
      ],
      "name": "matchOrder",
      "outputs": [],
      "stateMutability": "nonpayable",
      "type": "function"
    },
    {
      "inputs": [
        {
          "components": [
            {
              "internalType": "uint256",
              "name": "tokenId",
              "type": "uint256"
            },
            {
              "internalType": "uint256",
              "name": "price",
              "type": "uint256"
            },
            {
              "internalType": "uint256",
              "name": "deadline",
              "type": "uint256"
            },
            {
              "internalType": "uint8",
              "name": "v",
              "type": "uint8"
            },
            {
              "internalType": "bytes32",
              "name": "r",
              "type": "bytes32"
            },
            {
              "internalType": "bytes32",
              "name": "s",
              "type": "bytes32"
            }
          ],
          "internalType": "struct SAnswerPermit.PostOrderArgs",
          "name": "_args",
          "type": "tuple"
        }
      ],
      "name": "postOrder",
      "outputs": [
        {
          "internalType": "uint256",
          "name": "saleId",
          "type": "uint256"
        }
      ],
      "stateMutability": "nonpayable",
      "type": "function"
    },
    {
      "inputs": [
        {
          "internalType": "uint256",
          "name": "",
          "type": "uint256"
        }
      ],
      "name": "saleList",
      "outputs": [
        {
          "internalType": "address",
          "name": "owner",
          "type": "address"
        },
        {
          "internalType": "address",
          "name": "spender",
          "type": "address"
        },
        {
          "internalType": "uint256",
          "name": "tokenId",
          "type": "uint256"
        },
        {
          "internalType": "uint256",
          "name": "price",
          "type": "uint256"
        },
        {
          "internalType": "uint256",
          "name": "deadline",
          "type": "uint256"
        },
        {
          "internalType": "uint8",
          "name": "v",
          "type": "uint8"
        },
        {
          "internalType": "bytes32",
          "name": "r",
          "type": "bytes32"
        },
        {
          "internalType": "bytes32",
          "name": "s",
          "type": "bytes32"
        }
      ],
      "stateMutability": "view",
      "type": "function"
    },
    {
      "inputs": [
        {
          "internalType": "address",
          "name": "_currency",
          "type": "address"
        }
      ],
      "name": "setPermitCurrencyAddress",
      "outputs": [],
      "stateMutability": "nonpayable",
      "type": "function"
    },
    {
      "inputs": [
        {
          "internalType": "address",
          "name": "_nft",
          "type": "address"
        }
      ],
      "name": "setPermitNFTAddress",
      "outputs": [],
      "stateMutability": "nonpayable",
      "type": "function"
    }
  ],
  "bytecode": {
    "object": "0x608060405234801561001057600080fd5b50610b03806100206000396000f3fe608060405234801561001057600080fd5b50600436106100575760003560e01c8063bbc5c2a61461005c578063e724338114610071578063e75c9618146100a1578063f413d2b6146100d1578063fe4de60c146100f7575b600080fd5b61006f61006a36600461099c565b6101a2565b005b61006f61007f3660046109d7565b600180546001600160a01b0319166001600160a01b0392909216919091179055565b61006f6100af3660046109d7565b600280546001600160a01b0319166001600160a01b0392909216919091179055565b6100e46100df36600461099c565b610534565b6040519081526020015b60405180910390f35b6101596101053660046109f4565b6003602081905260009182526040909120805460018201546002830154938301546004840154600585015460068601546007909601546001600160a01b039586169795909416959293919260ff9091169188565b604080516001600160a01b03998a168152989097166020890152958701949094526060860192909252608085015260ff1660a084015260c083015260e0820152610100016100ee565b805160009081526003602081815260409283902083516101008101855281546001600160a01b03908116825260018301541681840152600282015494810194909452918201546060840181905260048301546080850152600583015460ff1660a0850152600683015460c085015260079092015460e084015283015110156102865760405162461bcd60e51b815260206004820152602c60248201527f596f75206d757374207065726d6974206d6f7265206d6f6e657920746f20746860448201526b34b99031b7b73a3930b1ba1760a11b60648201526084015b60405180910390fd5b428160800151116102d95760405162461bcd60e51b815260206004820152601c60248201527f446561646c696e652068617320616c7265616479207061737365642e00000000604482015260640161027d565b60608101516002546040516370a0823160e01b81523360048201526001600160a01b03909116906370a0823190602401602060405180830381865afa158015610326573d6000803e3d6000fd5b505050506040513d601f19601f8201168201806040525081019061034a9190610a0d565b10156103a75760405162461bcd60e51b815260206004820152602660248201527f596f7520646f6e2774206861766520656e6f756768206d6f6e657920746f20626044820152653abc9034ba1760d11b606482015260840161027d565b60025460208301516040808501516060860151608087015160a0880151935163d505accf60e01b81526001600160a01b039096169563d505accf956103f9953395309592949093909190600401610a26565b600060405180830381600087803b15801561041357600080fd5b505af1158015610427573d6000803e3d6000fd5b5050600254835160608501516040516323b872dd60e01b81523360048201526001600160a01b0392831660248201526044810191909152911692506323b872dd91506064016020604051808303816000875af115801561048b573d6000803e3d6000fd5b505050506040513d601f19601f820116820180604052508101906104af9190610a67565b50600154815160408084015190516323b872dd60e01b81526001600160a01b03928316600482015233602482015260448101919091529116906323b872dd90606401600060405180830381600087803b15801561050b57600080fd5b505af115801561051f573d6000803e3d6000fd5b505050506105308160400151610871565b5050565b60015481516040516331a9108f60e11b815260048101919091526000916001600160a01b031690636352211e90602401602060405180830381865afa158015610581573d6000803e3d6000fd5b505050506040513d601f19601f820116820180604052508101906105a59190610a89565b6001600160a01b0316336001600160a01b0316146106055760405162461bcd60e51b815260206004820152601a60248201527f43616c6c6572206973206e6f7420746f6b656e206f776e65722e000000000000604482015260640161027d565b6040805161010081018252600080825260208201819052818301819052606082018190526080820181905260a0820181905260c0820181905260e0820152600154845192516331a9108f60e11b8152600481019390935290916001600160a01b0390911690636352211e90602401602060405180830381865afa158015610690573d6000803e3d6000fd5b505050506040513d601f19601f820116820180604052508101906106b49190610a89565b6001600160a01b03908116825230602080840191825285516040808601918252878301516060808801918252828a01516080808a01918252918b015160ff90811660a0808c01918252938d015160c08c01908152938d015160e08c019081526000805481526003998a90528790208c5181546001600160a01b0319908116918e169190911782559a5160018083018054909d16918e1691909117909b559751600289018190559551988801989098559151600480880191909155915160058701805460ff191691909216179055905160068501559351600790930192909255925492516331a9108f60e11b81529182015291169063d505accf908290636352211e90602401602060405180830381865afa1580156107d6573d6000803e3d6000fd5b505050506040513d601f19601f820116820180604052508101906107fa9190610a89565b30846040015185608001518660a001518760c001518860e001516040518863ffffffff1660e01b81526004016108369796959493929190610a26565b600060405180830381600087803b15801561085057600080fd5b505af1158015610864573d6000803e3d6000fd5b5050505050505060005490565b60005b600081815260036020526040902060020154821461089e578061089681610aa6565b915050610874565b6000908152600360208190526040822080546001600160a01b031990811682556001820180549091169055600281018390559081018290556004810182905560058101805460ff19169055600681018290556007015550565b803560ff8116811461090857600080fd5b919050565b600060c0828403121561091f57600080fd5b60405160c0810181811067ffffffffffffffff8211171561095057634e487b7160e01b600052604160045260246000fd5b806040525080915082358152602083013560208201526040830135604082015261097c606084016108f7565b60608201526080830135608082015260a083013560a08201525092915050565b600060c082840312156109ae57600080fd5b6109b8838361090d565b9392505050565b6001600160a01b03811681146109d457600080fd5b50565b6000602082840312156109e957600080fd5b81356109b8816109bf565b600060208284031215610a0657600080fd5b5035919050565b600060208284031215610a1f57600080fd5b5051919050565b6001600160a01b0397881681529590961660208601526040850193909352606084019190915260ff16608083015260a082015260c081019190915260e00190565b600060208284031215610a7957600080fd5b815180151581146109b857600080fd5b600060208284031215610a9b57600080fd5b81516109b8816109bf565b600060018201610ac657634e487b7160e01b600052601160045260246000fd5b506001019056fea2646970667358221220772b80bb217a6f07dded4663e5b624f217f7783845790ea338a56ab20e190ccc64736f6c63430008130033",
    "linkReferences": {}
  },
  "methodIdentifiers": {
    "matchOrder((uint256,uint256,uint256,uint8,bytes32,bytes32))": "bbc5c2a6",
    "postOrder((uint256,uint256,uint256,uint8,bytes32,bytes32))": "f413d2b6",
    "saleList(uint256)": "fe4de60c",
    "setPermitCurrencyAddress(address)": "e75c9618",
    "setPermitNFTAddress(address)": "e7243381"
  },
  "id": 26
}